{
  "_format": "hh-sol-artifact-1",
  "contractName": "GroupMsg",
  "sourceName": "contracts/GroupMsg.sol",
  "abi": [
    {
      "stateMutability": "nonpayable",
      "type": "fallback"
    },
    {
      "inputs": [
        {
          "internalType": "uint256",
          "name": "_msg_index",
          "type": "uint256"
        }
      ],
      "name": "getMsg",
      "outputs": [
        {
          "components": [
            {
              "internalType": "uint256",
              "name": "sent_msg",
              "type": "uint256"
            },
            {
              "internalType": "uint256[12]",
              "name": "group",
              "type": "uint256[12]"
            },
            {
              "internalType": "uint256",
              "name": "secret_msg_hash",
              "type": "uint256"
            },
            {
              "internalType": "uint256",
              "name": "sender",
              "type": "uint256"
            },
            {
              "internalType": "uint256[]",
              "name": "denied",
              "type": "uint256[]"
            }
          ],
          "internalType": "struct GroupMsg.MsgData",
          "name": "_msg_data",
          "type": "tuple"
        }
      ],
      "stateMutability": "view",
      "type": "function"
    },
    {
      "inputs": [
        {
          "internalType": "uint256",
          "name": "_page_size",
          "type": "uint256"
        },
        {
          "internalType": "uint256",
          "name": "_page_index",
          "type": "uint256"
        }
      ],
      "name": "getMsgBatch",
      "outputs": [
        {
          "components": [
            {
              "internalType": "uint256",
              "name": "sent_msg",
              "type": "uint256"
            },
            {
              "internalType": "uint256[12]",
              "name": "group",
              "type": "uint256[12]"
            },
            {
              "internalType": "uint256",
              "name": "secret_msg_hash",
              "type": "uint256"
            },
            {
              "internalType": "uint256",
              "name": "sender",
              "type": "uint256"
            },
            {
              "internalType": "uint256[]",
              "name": "denied",
              "type": "uint256[]"
            }
          ],
          "internalType": "struct GroupMsg.MsgData[]",
          "name": "",
          "type": "tuple[]"
        }
      ],
      "stateMutability": "view",
      "type": "function"
    },
    {
      "inputs": [],
      "name": "getNumMsg",
      "outputs": [
        {
          "internalType": "uint256",
          "name": "msg_len",
          "type": "uint256"
        }
      ],
      "stateMutability": "view",
      "type": "function"
    },
    {
      "inputs": [
        {
          "internalType": "uint256[2]",
          "name": "a",
          "type": "uint256[2]"
        },
        {
          "internalType": "uint256[2][2]",
          "name": "b",
          "type": "uint256[2][2]"
        },
        {
          "internalType": "uint256[2]",
          "name": "c",
          "type": "uint256[2]"
        },
        {
          "internalType": "uint256[12]",
          "name": "input",
          "type": "uint256[12]"
        }
      ],
      "name": "sendMsg",
      "outputs": [
        {
          "internalType": "bool",
          "name": "validProof",
          "type": "bool"
        }
      ],
      "stateMutability": "nonpayable",
      "type": "function"
    },
    {
      "inputs": [
        {
          "internalType": "uint256[2]",
          "name": "a",
          "type": "uint256[2]"
        },
        {
          "internalType": "uint256[2][2]",
          "name": "b",
          "type": "uint256[2][2]"
        },
        {
          "internalType": "uint256[2]",
          "name": "c",
          "type": "uint256[2]"
        },
        {
          "internalType": "uint256[12]",
          "name": "input",
          "type": "uint256[12]"
        }
      ],
      "name": "verifySendGroupMsgProof",
      "outputs": [
        {
          "internalType": "bool",
          "name": "r",
          "type": "bool"
        }
      ],
      "stateMutability": "view",
      "type": "function"
    }
  ],
  "bytecode": "0x608060405234801561001057600080fd5b50612edf806100206000396000f3fe608060405234801561001057600080fd5b506004361061005b5760003560e01c8063290a5f891461010c5780632b82735b1461012a57806332f5cf721461015a57806376646ac41461018a5780637c25b9fc146101ba5761005c565b5b600036606061009f6040518060400160405280600e81526020017f2d2d2d66616c6c6261636b2d2d2d0000000000000000000000000000000000008152506101ea565b82826000906004926100b393929190612082565b8080601f016020809104026020016040519081016040528093929190818152602001838380828437600081840152601f19601f82011690508083019250505050505050905061010181610283565b915050805190602001f35b61011461031c565b60405161012191906120d6565b60405180910390f35b610144600480360381019061013f9190612122565b610329565b604051610151919061230b565b60405180910390f35b610174600480360381019061016f919061232d565b610467565b60405161018191906124a9565b60405180910390f35b6101a4600480360381019061019f9190612774565b61068a565b6040516101b191906127f8565b60405180910390f35b6101d460048036038101906101cf9190612774565b61084f565b6040516101e191906127f8565b60405180910390f35b610280816040516024016101fe919061289b565b6040516020818303038152906040527f41304fac000000000000000000000000000000000000000000000000000000007bffffffffffffffffffffffffffffffffffffffffffffffffffffffff19166020820180517bffffffffffffffffffffffffffffffffffffffffffffffffffffffff8381831617835250505050610ac9565b50565b610319816040516024016102979190612912565b6040516020818303038152906040527f0be77f56000000000000000000000000000000000000000000000000000000007bffffffffffffffffffffffffffffffffffffffffffffffffffffffff19166020820180517bffffffffffffffffffffffffffffffffffffffffffffffffffffffff8381831617835250505050610ac9565b50565b6000600180549050905090565b610331611e2a565b6001805490508210610378576040517f08c379a000000000000000000000000000000000000000000000000000000000815260040161036f90612980565b60405180910390fd5b6001828154811061038c5761038b6129a0565b5b90600052602060002090601002016040518060a00160405290816000820154815260200160018201600c806020026040519081016040528092919082600c80156103eb576020028201915b8154815260200190600101908083116103d7575b50505050508152602001600d8201548152602001600e8201548152602001600f820180548060200260200160405190810160405280929190818152602001828054801561045757602002820191906000526020600020905b815481526020019060010190808311610443575b5050505050815250509050919050565b606060008367ffffffffffffffff811115610485576104846124e1565b5b6040519080825280602002602001820160405280156104be57816020015b6104ab611e2a565b8152602001906001900390816104a35790505b50905082846104cd91906129fe565b60018054905011610513576040517f08c379a000000000000000000000000000000000000000000000000000000000815260040161050a90612980565b60405180910390fd5b6000838561052191906129fe565b600180805490506105329190612a58565b61053c9190612a58565b905060005b8581101561067e576001828154811061055d5761055c6129a0565b5b90600052602060002090601002016040518060a00160405290816000820154815260200160018201600c806020026040519081016040528092919082600c80156105bc576020028201915b8154815260200190600101908083116105a8575b50505050508152602001600d8201548152602001600e8201548152602001600f820180548060200260200160405190810160405280929190818152602001828054801561062857602002820191906000526020600020905b815481526020019060010190808311610614575b505050505081525050838281518110610644576106436129a0565b5b6020026020010181905250600082141561065d5761067e565b818061066890612a8c565b925050808061067690612ab6565b915050610541565b50819250505092915050565b60006106ca6040518060400160405280600d81526020017f2d2d2d73656e644d73672d2d2d000000000000000000000000000000000000008152506101ea565b6106d68585858561084f565b905080610718576040517f08c379a000000000000000000000000000000000000000000000000000000000815260040161070f90612b4b565b60405180910390fd5b6000826000600c811061072e5761072d6129a0565b5b602002015190506000836001600c811061074b5761074a6129a0565b5b602002015190506000849050806000600c811061076b5761076a6129a0565b5b602002016000815250806001600c8110610788576107876129a0565b5b6020020160008152506000606060006040518060a0016040528086815260200185815260200187815260200184815260200183815250905060018190806001815401808255809150506001900390600052602060002090601002016000909190919091506000820151816000015560208201518160010190600c61080d929190611e5f565b50604082015181600d0155606082015181600e0155608082015181600f01908051906020019061083e929190611e9f565b505050505050505050949350505050565b6000610859611eec565b604051806040016040528087600060028110610878576108776129a0565b5b6020020151815260200187600160028110610896576108956129a0565b5b6020020151815250816000018190525060405180604001604052806040518060400160405280886000600281106108d0576108cf6129a0565b5b60200201516000600281106108e8576108e76129a0565b5b6020020151815260200188600060028110610906576109056129a0565b5b602002015160016002811061091e5761091d6129a0565b5b6020020151815250815260200160405180604001604052808860016002811061094a576109496129a0565b5b6020020151600060028110610962576109616129a0565b5b60200201518152602001886001600281106109805761097f6129a0565b5b6020020151600160028110610998576109976129a0565b5b602002015181525081525081602001819052506040518060400160405280856000600281106109ca576109c96129a0565b5b60200201518152602001856001600281106109e8576109e76129a0565b5b602002015181525081604001819052506000600c67ffffffffffffffff811115610a1557610a146124e1565b5b604051908082528060200260200182016040528015610a435781602001602082028036833780820191505090505b50905060005b600c811015610a9c578481600c8110610a6557610a646129a0565b5b6020020151828281518110610a7d57610a7c6129a0565b5b6020026020010181815250508080610a9490612ab6565b915050610a49565b506000610aa98284610af2565b1415610aba57600192505050610ac1565b6000925050505b949350505050565b60008151905060006a636f6e736f6c652e6c6f679050602083016000808483855afa5050505050565b6000807f30644e72e131a029b85045b68181585d2833e84879b9709143e1f593f000000190506000610b22610ce5565b905080608001515160018651610b389190612b6b565b14610b78576040517f08c379a0000000000000000000000000000000000000000000000000000000008152600401610b6f90612c0d565b60405180910390fd5b60006040518060400160405280600081526020016000815250905060005b8651811015610c675783878281518110610bb357610bb26129a0565b5b602002602001015110610bfb576040517f08c379a0000000000000000000000000000000000000000000000000000000008152600401610bf290612c79565b60405180910390fd5b610c5282610c4d8560800151600185610c149190612b6b565b81518110610c2557610c246129a0565b5b60200260200101518a8581518110610c4057610c3f6129a0565b5b6020026020010151611611565b6116ee565b91508080610c5f90612ab6565b915050610b96565b50610c91818360800151600081518110610c8457610c836129a0565b5b60200260200101516116ee565b9050610cc7610ca386600001516117f1565b8660200151846000015185602001518587604001518b604001518960600151611896565b610cd75760019350505050610cdf565b600093505050505b92915050565b610ced611f1f565b60405180604001604052807f2d4d9aa7e302d9df41749d5507949d05dbea33fbb16c643b22f599a2be6df2e281526020017f14bedd503c37ceb061d8ec60209fe345ce89830a19230301f076caff004d19268152508160000181905250604051806040016040528060405180604001604052807f0967032fcbf776d1afc985f88877f182d38480a653f2decaa9794cbc3bf3060c81526020017f0e187847ad4c798374d0d6732bf501847dd68bc0e071241e0213bc7fc13db7ab815250815260200160405180604001604052807f304cfbd1e08a704a99f5e847d93f8c3caafddec46b7a0d379da69a4d112346a781526020017f1739c1b1a457a8c7313123d24d2f9192f896b7c63eea05a9d57f06547ad0cec88152508152508160200181905250604051806040016040528060405180604001604052807f198e9393920d483a7260bfb731fb5d25f1aa493335a9e71297e485b7aef312c281526020017f1800deef121f1e76426a00665e5c4479674322d4f75edadd46debd5cd992f6ed815250815260200160405180604001604052807f090689d0585ff075ec9e99ad690c3395bc4b313370b38ef355acdadcd122975b81526020017f12c85ea5db8c6deb4aab71808dcb408fe3d1e7690c43d37b4ce6cc0166fa7daa8152508152508160400181905250604051806040016040528060405180604001604052807f2ecfc70875cc3e16e661354a0c7b8d2016d1f4093cb6b30ef164c5d10f91ebfd81526020017f052757557db49bfeda9f535bc3ef8e5a51fd2fbcb97bef2fd74abcd4d3f94dcd815250815260200160405180604001604052807f043f4bb541e209469fdd87ced06abb9a842aabeb5162cdb47368d5e188afe82c81526020017f02206ab59a572fd82aa7c2ce27818d40c1bf15e65907386f6946934487eaf0e68152508152508160600181905250600d67ffffffffffffffff811115610fb457610fb36124e1565b5b604051908082528060200260200182016040528015610fed57816020015b610fda611f66565b815260200190600190039081610fd25790505b50816080018190525060405180604001604052807f01b2c8909580ce1ac4b3951d6cc42e4023f1bb167345a2f32c0b179ce98a1ad281526020017f1b64b9981887cce7e0905ded92895ad2573fb379139159983c1de67aa966b2778152508160800151600081518110611063576110626129a0565b5b602002602001018190525060405180604001604052807f30575647359f5f7ca0416c637a51814369efb326947e4e29cb2c562e60924cdd81526020017f0b4306fed2dd675b9ce502591efb5ba6419e938861b5d868e3aaa3ff0fdf52cf81525081608001516001815181106110db576110da6129a0565b5b602002602001018190525060405180604001604052807f2e3bd397edb0f285353117a362ef3e30633be1bf160f287ad55c103ab0a7854881526020017f02fbb26a5287a574b03b02d19917232b4c3532c59766d0d5230adf2cd46706ca8152508160800151600281518110611153576111526129a0565b5b602002602001018190525060405180604001604052807f0fe99541415306cbfe02663096dd967d10372dbb7c7197fe237693eecf1cc42b81526020017f06f2ae75fb30648a8e4b760bdb79f84d86498de0b09d868c580ee3ed8548f8e281525081608001516003815181106111cb576111ca6129a0565b5b602002602001018190525060405180604001604052807f270647f16aef0b23684472b5b823b260fa61194f83a386c1443724d917a5ce2981526020017f20a4d4f9cecfb4c706e7e940b41d85aa3bd477dc63ba218a522476d566b536d88152508160800151600481518110611243576112426129a0565b5b602002602001018190525060405180604001604052807f13eb474aa21de6ebdc5e4bf355b81d8c6313b201398e4d88bbb9a8e9a1c264ef81526020017f0e23335d8387ad9fdf06fae241753c18a99acb7a5a05e491794d7f213948d4a881525081608001516005815181106112bb576112ba6129a0565b5b602002602001018190525060405180604001604052807f1872b2d98e900acb1968adc1d7c3f3214eef56de1ed3fe212a6964ca7bd7b29d81526020017f104fca5d8d1bbb9d77edd303c676e1b1989758764afd0576575d2fcbe2e430968152508160800151600681518110611333576113326129a0565b5b602002602001018190525060405180604001604052807f227aec9ad7583e135c56c8bae9ab87aac91d8d0eda9b7440d93c31e996792c5681526020017f0b97c01979218df2ce2fec39695a5af3398ee3dff3062c7b71ef9e8b8af8b67681525081608001516007815181106113ab576113aa6129a0565b5b602002602001018190525060405180604001604052807f1d5af33e3dca4f009912049c76c156de9e5ceb69627903192e7cf2e0a163f95f81526020017f2341dceef2e695eafc4e91217c0ce72645fc4ce54dd2155c5d36a109c52e0a418152508160800151600881518110611423576114226129a0565b5b602002602001018190525060405180604001604052807f08c17c5fc9ff3ce72f5cc0b58a664aaae1d477694337187c136ef241c325b7d581526020017f09ac97ab629d8e09a7e69aa69f94fef5d3bdf3069aea17381ba91c095bcb521e815250816080015160098151811061149b5761149a6129a0565b5b602002602001018190525060405180604001604052807f08b325482302885b3e9a408ee7ed7ce27b3f874e1f5560251d472ddfe6c99e4d81526020017f1d5609cc3fbc26301d04c454e2f4c26bb464ae40a36caf7e742673d1e9c8b69f8152508160800151600a81518110611513576115126129a0565b5b602002602001018190525060405180604001604052807f0113026f6e023d050201255ce305530e27a399aebdd195f5bafe2b2211195cd581526020017f2c86c09f202b1774ac84ed807cb40561c7739ec97c4e4ecf2bb3e891c81361d38152508160800151600b8151811061158b5761158a6129a0565b5b602002602001018190525060405180604001604052807f2712d28383ddaa3b8b812add757eab935f34cff52cc69a42415054829e755a0081526020017f11e812fe1e39e70bcb1efd5a596bae68acb40fb30433758730acb6fec04491a58152508160800151600c81518110611603576116026129a0565b5b602002602001018190525090565b611619611f66565b611621611f80565b83600001518160006003811061163a576116396129a0565b5b60200201818152505083602001518160016003811061165c5761165b6129a0565b5b602002018181525050828160026003811061167a576116796129a0565b5b602002018181525050600060608360808460076107d05a03fa905080600081146116a3576116a5565bfe5b50806116e6576040517f08c379a00000000000000000000000000000000000000000000000000000000081526004016116dd90612ce5565b60405180910390fd5b505092915050565b6116f6611f66565b6116fe611fa2565b836000015181600060048110611717576117166129a0565b5b602002018181525050836020015181600160048110611739576117386129a0565b5b60200201818152505082600001518160026004811061175b5761175a6129a0565b5b60200201818152505082602001518160036004811061177d5761177c6129a0565b5b602002018181525050600060608360c08460066107d05a03fa905080600081146117a6576117a8565bfe5b50806117e9576040517f08c379a00000000000000000000000000000000000000000000000000000000081526004016117e090612d51565b60405180910390fd5b505092915050565b6117f9611f66565b60007f30644e72e131a029b85045b68181585d97816a916871ca8d3c208c16d87cfd47905060008360000151148015611836575060008360200151145b1561185a576040518060400160405280600081526020016000815250915050611891565b60405180604001604052808460000151815260200182856020015161187f9190612da0565b8361188a9190612a58565b8152509150505b919050565b600080600467ffffffffffffffff8111156118b4576118b36124e1565b5b6040519080825280602002602001820160405280156118ed57816020015b6118da611f66565b8152602001906001900390816118d25790505b5090506000600467ffffffffffffffff81111561190d5761190c6124e1565b5b60405190808252806020026020018201604052801561194657816020015b611933611fc4565b81526020019060019003908161192b5790505b5090508a8260008151811061195e5761195d6129a0565b5b6020026020010181905250888260018151811061197e5761197d6129a0565b5b6020026020010181905250868260028151811061199e5761199d6129a0565b5b602002602001018190525084826003815181106119be576119bd6129a0565b5b602002602001018190525089816000815181106119de576119dd6129a0565b5b602002602001018190525087816001815181106119fe576119fd6129a0565b5b60200260200101819052508581600281518110611a1e57611a1d6129a0565b5b60200260200101819052508381600381518110611a3e57611a3d6129a0565b5b6020026020010181905250611a538282611a63565b9250505098975050505050505050565b60008151835114611aa9576040517f08c379a0000000000000000000000000000000000000000000000000000000008152600401611aa090612e1d565b60405180910390fd5b6000835190506000600682611abe91906129fe565b905060008167ffffffffffffffff811115611adc57611adb6124e1565b5b604051908082528060200260200182016040528015611b0a5781602001602082028036833780820191505090505b50905060005b83811015611d8f57868181518110611b2b57611b2a6129a0565b5b602002602001015160000151826000600684611b4791906129fe565b611b519190612b6b565b81518110611b6257611b616129a0565b5b602002602001018181525050868181518110611b8157611b806129a0565b5b602002602001015160200151826001600684611b9d91906129fe565b611ba79190612b6b565b81518110611bb857611bb76129a0565b5b602002602001018181525050858181518110611bd757611bd66129a0565b5b602002602001015160000151600060028110611bf657611bf56129a0565b5b6020020151826002600684611c0b91906129fe565b611c159190612b6b565b81518110611c2657611c256129a0565b5b602002602001018181525050858181518110611c4557611c446129a0565b5b602002602001015160000151600160028110611c6457611c636129a0565b5b6020020151826003600684611c7991906129fe565b611c839190612b6b565b81518110611c9457611c936129a0565b5b602002602001018181525050858181518110611cb357611cb26129a0565b5b602002602001015160200151600060028110611cd257611cd16129a0565b5b6020020151826004600684611ce791906129fe565b611cf19190612b6b565b81518110611d0257611d016129a0565b5b602002602001018181525050858181518110611d2157611d206129a0565b5b602002602001015160200151600160028110611d4057611d3f6129a0565b5b6020020151826005600684611d5591906129fe565b611d5f9190612b6b565b81518110611d7057611d6f6129a0565b5b6020026020010181815250508080611d8790612ab6565b915050611b10565b50611d98611fea565b6000602082602086026020860160086107d05a03fa90508060008114611dbd57611dbf565bfe5b5080611e00576040517f08c379a0000000000000000000000000000000000000000000000000000000008152600401611df790612e89565b60405180910390fd5b600082600060018110611e1657611e156129a0565b5b602002015114159550505050505092915050565b6040518060a0016040528060008152602001611e4461200c565b81526020016000815260200160008152602001606081525090565b82600c8101928215611e8e579160200282015b82811115611e8d578251825591602001919060010190611e72565b5b509050611e9b919061202f565b5090565b828054828255906000526020600020908101928215611edb579160200282015b82811115611eda578251825591602001919060010190611ebf565b5b509050611ee8919061202f565b5090565b6040518060600160405280611eff611f66565b8152602001611f0c611fc4565b8152602001611f19611f66565b81525090565b6040518060a00160405280611f32611f66565b8152602001611f3f611fc4565b8152602001611f4c611fc4565b8152602001611f59611fc4565b8152602001606081525090565b604051806040016040528060008152602001600081525090565b6040518060600160405280600390602082028036833780820191505090505090565b6040518060800160405280600490602082028036833780820191505090505090565b6040518060400160405280611fd761204c565b8152602001611fe461204c565b81525090565b6040518060200160405280600190602082028036833780820191505090505090565b604051806101800160405280600c90602082028036833780820191505090505090565b5b80821115612048576000816000905550600101612030565b5090565b6040518060400160405280600290602082028036833780820191505090505090565b6000604051905090565b600080fd5b600080fd5b6000808585111561209657612095612078565b5b838611156120a7576120a661207d565b5b6001850283019150848603905094509492505050565b6000819050919050565b6120d0816120bd565b82525050565b60006020820190506120eb60008301846120c7565b92915050565b600080fd5b6120ff816120bd565b811461210a57600080fd5b50565b60008135905061211c816120f6565b92915050565b600060208284031215612138576121376120f1565b5b60006121468482850161210d565b91505092915050565b612158816120bd565b82525050565b6000600c9050919050565b600081905092915050565b6000819050919050565b600061218a838361214f565b60208301905092915050565b6000602082019050919050565b6121ac8161215e565b6121b68184612169565b92506121c182612174565b8060005b838110156121f25781516121d9878261217e565b96506121e483612196565b9250506001810190506121c5565b505050505050565b600081519050919050565b600082825260208201905092915050565b6000819050602082019050919050565b6000602082019050919050565b600061223e826121fa565b6122488185612205565b935061225383612216565b8060005b8381101561228457815161226b888261217e565b975061227683612226565b925050600181019050612257565b5085935050505092915050565b6000610200830160008301516122aa600086018261214f565b5060208301516122bd60208601826121a3565b5060408301516122d16101a086018261214f565b5060608301516122e56101c086018261214f565b5060808301518482036101e08601526122fe8282612233565b9150508091505092915050565b600060208201905081810360008301526123258184612291565b905092915050565b60008060408385031215612344576123436120f1565b5b60006123528582860161210d565b92505060206123638582860161210d565b9150509250929050565b600081519050919050565b600082825260208201905092915050565b6000819050602082019050919050565b6000610200830160008301516123b2600086018261214f565b5060208301516123c560208601826121a3565b5060408301516123d96101a086018261214f565b5060608301516123ed6101c086018261214f565b5060808301518482036101e08601526124068282612233565b9150508091505092915050565b600061241f8383612399565b905092915050565b6000602082019050919050565b600061243f8261236d565b6124498185612378565b93508360208202850161245b85612389565b8060005b8581101561249757848403895281516124788582612413565b945061248383612427565b925060208a0199505060018101905061245f565b50829750879550505050505092915050565b600060208201905081810360008301526124c38184612434565b905092915050565b600080fd5b6000601f19601f8301169050919050565b7f4e487b7100000000000000000000000000000000000000000000000000000000600052604160045260246000fd5b612519826124d0565b810181811067ffffffffffffffff82111715612538576125376124e1565b5b80604052505050565b600061254b61206e565b90506125578282612510565b919050565b600067ffffffffffffffff821115612577576125766124e1565b5b602082029050919050565b600080fd5b600061259a6125958461255c565b612541565b905080602084028301858111156125b4576125b3612582565b5b835b818110156125dd57806125c9888261210d565b8452602084019350506020810190506125b6565b5050509392505050565b600082601f8301126125fc576125fb6124cb565b5b6002612609848285612587565b91505092915050565b600067ffffffffffffffff82111561262d5761262c6124e1565b5b602082029050919050565b600061264b61264684612612565b612541565b9050806040840283018581111561266557612664612582565b5b835b8181101561268e578061267a88826125e7565b845260208401935050604081019050612667565b5050509392505050565b600082601f8301126126ad576126ac6124cb565b5b60026126ba848285612638565b91505092915050565b600067ffffffffffffffff8211156126de576126dd6124e1565b5b602082029050919050565b60006126fc6126f7846126c3565b612541565b9050806020840283018581111561271657612715612582565b5b835b8181101561273f578061272b888261210d565b845260208401935050602081019050612718565b5050509392505050565b600082601f83011261275e5761275d6124cb565b5b600c61276b8482856126e9565b91505092915050565b600080600080610280858703121561278f5761278e6120f1565b5b600061279d878288016125e7565b94505060406127ae87828801612698565b93505060c06127bf878288016125e7565b9250506101006127d187828801612749565b91505092959194509250565b60008115159050919050565b6127f2816127dd565b82525050565b600060208201905061280d60008301846127e9565b92915050565b600081519050919050565b600082825260208201905092915050565b60005b8381101561284d578082015181840152602081019050612832565b8381111561285c576000848401525b50505050565b600061286d82612813565b612877818561281e565b935061288781856020860161282f565b612890816124d0565b840191505092915050565b600060208201905081810360008301526128b58184612862565b905092915050565b600081519050919050565b600082825260208201905092915050565b60006128e4826128bd565b6128ee81856128c8565b93506128fe81856020860161282f565b612907816124d0565b840191505092915050565b6000602082019050818103600083015261292c81846128d9565b905092915050565b7f496e646578206f7574206f6620626f756e647300000000000000000000000000600082015250565b600061296a60138361281e565b915061297582612934565b602082019050919050565b600060208201905081810360008301526129998161295d565b9050919050565b7f4e487b7100000000000000000000000000000000000000000000000000000000600052603260045260246000fd5b7f4e487b7100000000000000000000000000000000000000000000000000000000600052601160045260246000fd5b6000612a09826120bd565b9150612a14836120bd565b9250817fffffffffffffffffffffffffffffffffffffffffffffffffffffffffffffffff0483118215151615612a4d57612a4c6129cf565b5b828202905092915050565b6000612a63826120bd565b9150612a6e836120bd565b925082821015612a8157612a806129cf565b5b828203905092915050565b6000612a97826120bd565b91506000821415612aab57612aaa6129cf565b5b600182039050919050565b6000612ac1826120bd565b91507fffffffffffffffffffffffffffffffffffffffffffffffffffffffffffffffff821415612af457612af36129cf565b5b600182019050919050565b7f496e76616c69642070726f6f6600000000000000000000000000000000000000600082015250565b6000612b35600d8361281e565b9150612b4082612aff565b602082019050919050565b60006020820190508181036000830152612b6481612b28565b9050919050565b6000612b76826120bd565b9150612b81836120bd565b9250827fffffffffffffffffffffffffffffffffffffffffffffffffffffffffffffffff03821115612bb657612bb56129cf565b5b828201905092915050565b7f76657269666965722d6261642d696e7075740000000000000000000000000000600082015250565b6000612bf760128361281e565b9150612c0282612bc1565b602082019050919050565b60006020820190508181036000830152612c2681612bea565b9050919050565b7f76657269666965722d6774652d736e61726b2d7363616c61722d6669656c6400600082015250565b6000612c63601f8361281e565b9150612c6e82612c2d565b602082019050919050565b60006020820190508181036000830152612c9281612c56565b9050919050565b7f70616972696e672d6d756c2d6661696c65640000000000000000000000000000600082015250565b6000612ccf60128361281e565b9150612cda82612c99565b602082019050919050565b60006020820190508181036000830152612cfe81612cc2565b9050919050565b7f70616972696e672d6164642d6661696c65640000000000000000000000000000600082015250565b6000612d3b60128361281e565b9150612d4682612d05565b602082019050919050565b60006020820190508181036000830152612d6a81612d2e565b9050919050565b7f4e487b7100000000000000000000000000000000000000000000000000000000600052601260045260246000fd5b6000612dab826120bd565b9150612db6836120bd565b925082612dc657612dc5612d71565b5b828206905092915050565b7f70616972696e672d6c656e677468732d6661696c656400000000000000000000600082015250565b6000612e0760168361281e565b9150612e1282612dd1565b602082019050919050565b60006020820190508181036000830152612e3681612dfa565b9050919050565b7f70616972696e672d6f70636f64652d6661696c65640000000000000000000000600082015250565b6000612e7360158361281e565b9150612e7e82612e3d565b602082019050919050565b60006020820190508181036000830152612ea281612e66565b905091905056fea26469706673582212203ffa7576cee1b7b4fad234a6892394432b4f4859ec55bdfff4a42c6973d144d264736f6c63430008090033",
  "linkReferences": {},
  "deployedLinkReferences": {}
}